{
  "contractName": "Election",
  "abi": [
    {
      "inputs": [],
      "payable": false,
      "stateMutability": "nonpayable",
      "type": "constructor"
    },
    {
      "anonymous": false,
      "inputs": [
        {
          "indexed": true,
          "internalType": "uint256",
          "name": "campaignId",
          "type": "uint256"
        }
      ],
      "name": "votedEvent",
      "type": "event"
    },
    {
      "constant": true,
      "inputs": [
        {
          "internalType": "uint256",
          "name": "",
          "type": "uint256"
        }
      ],
      "name": "c",
      "outputs": [
        {
          "internalType": "bool",
          "name": "",
          "type": "bool"
        }
      ],
      "payable": false,
      "stateMutability": "view",
      "type": "function"
    },
    {
      "constant": true,
      "inputs": [
        {
          "internalType": "uint256",
          "name": "",
          "type": "uint256"
        }
      ],
      "name": "campaigns",
      "outputs": [
        {
          "internalType": "uint256",
          "name": "id",
          "type": "uint256"
        },
        {
          "internalType": "string",
          "name": "name",
          "type": "string"
        },
        {
          "internalType": "uint256",
          "name": "voteCountYes",
          "type": "uint256"
        },
        {
          "internalType": "uint256",
          "name": "voteCountNo",
          "type": "uint256"
        }
      ],
      "payable": false,
      "stateMutability": "view",
      "type": "function"
    },
    {
      "constant": true,
      "inputs": [],
      "name": "campaignsCount",
      "outputs": [
        {
          "internalType": "uint256",
          "name": "",
          "type": "uint256"
        }
      ],
      "payable": false,
      "stateMutability": "view",
      "type": "function"
    },
    {
      "constant": true,
      "inputs": [
        {
          "internalType": "address",
          "name": "",
          "type": "address"
        }
      ],
      "name": "voters",
      "outputs": [
        {
          "internalType": "bool",
          "name": "",
          "type": "bool"
        }
      ],
      "payable": false,
      "stateMutability": "view",
      "type": "function"
    },
    {
      "constant": false,
      "inputs": [
        {
          "internalType": "uint256",
          "name": "campaignId",
          "type": "uint256"
        }
      ],
      "name": "vote",
      "outputs": [],
      "payable": false,
      "stateMutability": "nonpayable",
      "type": "function"
    },
    {
      "constant": false,
      "inputs": [
        {
          "internalType": "uint256",
          "name": "campaignId",
          "type": "uint256"
        }
      ],
      "name": "vote2",
      "outputs": [],
      "payable": false,
      "stateMutability": "nonpayable",
      "type": "function"
    }
  ],
  "bytecode": "0x608060405234801561001057600080fd5b506100556040518060400160405280600a81526020017f43616d706169676e2031000000000000000000000000000000000000000000008152506100f660201b60201c565b6100996040518060400160405280600a81526020017f43616d706169676e2032000000000000000000000000000000000000000000008152506100f660201b60201c565b60008060006001815260200190815260200160002060006101000a81548160ff02191690831515021790555060008060006002815260200190815260200160002060006101000a81548160ff021916908315150217905550610228565b60036000815480929190600101919050555060405180608001604052806003548152602001828152602001600081526020016000815250600260006003548152602001908152602001600020600082015181600001556020820151816001019080519060200190610168929190610183565b50604082015181600201556060820151816003015590505050565b828054600181600116156101000203166002900490600052602060002090601f016020900481019282601f106101c457805160ff19168380011785556101f2565b828001600101855582156101f2579182015b828111156101f15782518255916020019190600101906101d6565b5b5090506101ff9190610203565b5090565b61022591905b80821115610221576000816000905550600101610209565b5090565b90565b610566806102376000396000f3fe608060405234801561001057600080fd5b50600436106100625760003560e01c80630121b93f14610067578063141961bc1461009557806344c89b65146101515780634f8dd50d1461016f5780637bdb46b5146101b5578063a3ec138d146101e3575b600080fd5b6100936004803603602081101561007d57600080fd5b810190808035906020019092919050505061023f565b005b6100c1600480360360208110156100ab57600080fd5b8101908080359060200190929190505050610331565b6040518085815260200180602001848152602001838152602001828103825285818151815260200191508051906020019080838360005b838110156101135780820151818401526020810190506100f8565b50505050905090810190601f1680156101405780820380516001836020036101000a031916815260200191505b509550505050505060405180910390f35b6101596103f9565b6040518082815260200191505060405180910390f35b61019b6004803603602081101561018557600080fd5b81019080803590602001909291905050506103ff565b604051808215151515815260200191505060405180910390f35b6101e1600480360360208110156101cb57600080fd5b810190808035906020019092919050505061041f565b005b610225600480360360208110156101f957600080fd5b81019080803573ffffffffffffffffffffffffffffffffffffffff169060200190929190505050610511565b604051808215151515815260200191505060405180910390f35b600160003373ffffffffffffffffffffffffffffffffffffffff1673ffffffffffffffffffffffffffffffffffffffff16815260200190815260200160002060009054906101000a900460ff161561029657600080fd5b6000811180156102a857506003548111155b6102b157600080fd5b60018060003373ffffffffffffffffffffffffffffffffffffffff1673ffffffffffffffffffffffffffffffffffffffff16815260200190815260200160002060006101000a81548160ff021916908315150217905550600260008281526020019081526020016000206002016000815480929190600101919050555050565b6002602052806000526040600020600091509050806000015490806001018054600181600116156101000203166002900480601f0160208091040260200160405190810160405280929190818152602001828054600181600116156101000203166002900480156103e35780601f106103b8576101008083540402835291602001916103e3565b820191906000526020600020905b8154815290600101906020018083116103c657829003601f168201915b5050505050908060020154908060030154905084565b60035481565b60006020528060005260406000206000915054906101000a900460ff1681565b600160003373ffffffffffffffffffffffffffffffffffffffff1673ffffffffffffffffffffffffffffffffffffffff16815260200190815260200160002060009054906101000a900460ff161561047657600080fd5b60008111801561048857506003548111155b61049157600080fd5b60018060003373ffffffffffffffffffffffffffffffffffffffff1673ffffffffffffffffffffffffffffffffffffffff16815260200190815260200160002060006101000a81548160ff021916908315150217905550600260008281526020019081526020016000206003016000815480929190600101919050555050565b60016020528060005260406000206000915054906101000a900460ff168156fea265627a7a7231582062e341a21261ccc98ccf3451ebe978a0179fbef1c625674ee1b2690508b0bb8e64736f6c63430005100032",
  "source": "pragma solidity >=0.4.21 <0.7.0;\r\n\r\ncontract Election {\r\n    // Model a Campaign\r\n    struct Campaign {\r\n        uint id;\r\n        string name;\r\n        uint voteCountYes;\r\n        uint voteCountNo;\r\n    }\r\n\r\n    mapping(uint => bool) public c;\r\n    // Store accounts that have voted\r\n    mapping(address => bool) public voters;\r\n    // Store Candidates\r\n    // Fetch Campaign\r\n    mapping(uint => Campaign) public campaigns;\r\n    // Store Candidates Count\r\n    uint public campaignsCount;\r\n\r\n    // voted event\r\n    event votedEvent (\r\n        uint indexed campaignId\r\n    );\r\n\r\n    constructor() public {\r\n        addCampaign(\"Campaign 1\");\r\n        addCampaign(\"Campaign 2\");\r\n\r\n        c[1] = false;\r\n        c[2] = false;\r\n    }\r\n\r\n    function addCampaign (string memory name) private {\r\n        campaignsCount ++;\r\n        campaigns[campaignsCount] = Campaign(campaignsCount, name, 0, 0);\r\n    }\r\n\r\n    function vote (uint campaignId) public {\r\n        // require that they haven't voted before\r\n        // require(!voters[msg.sender], \"Vote leaw\");\r\n\r\n        // // require a valid candidate\r\n        // require(campaignId > 0 && campaignId <= campaignsCount, \"Invalid candidate\");\r\n\r\n        // // record that voter has voted\r\n        // voters[msg.sender] = true;\r\n\r\n        // // update candidate vote Count\r\n        // campaigns[campaignId].voteCount ++;\r\n\r\n        require(!voters[msg.sender]);\r\n        //require(!campaigns[_candidateId]);\r\n\r\n        // if (!voters[msg.sender]) {\r\n        //     if (c[1] && c[2]) {\r\n        //         voters[msg.sender] = true;\r\n        //     }\r\n        // }\r\n\r\n        // require a valid candidate\r\n        require(campaignId > 0 && campaignId <= campaignsCount);\r\n\r\n        // record that voter has voted\r\n        voters[msg.sender] = true;\r\n        //c[campaignId] = true;\r\n\r\n        // update candidate vote Count\r\n        campaigns[campaignId].voteCountYes ++;\r\n\r\n\r\n        // trigger voted event\r\n        // emit votedEvent(campaignId);\r\n    }\r\n\r\n    function vote2 (uint campaignId) public {\r\n\r\n        require(!voters[msg.sender]);\r\n        //require(!campaigns[_candidateId]);\r\n\r\n        // if (!voters[msg.sender]) {\r\n        //     if (c[1] && c[2]) {\r\n        //         voters[msg.sender] = true;\r\n        //     }\r\n        // }\r\n\r\n        // require a valid candidate\r\n        require(campaignId > 0 && campaignId <= campaignsCount);\r\n\r\n        // record that voter has voted\r\n        voters[msg.sender] = true;\r\n        //c[campaignId] = true;\r\n\r\n        // update candidate vote Count\r\n        campaigns[campaignId].voteCountNo ++;\r\n    }\r\n}",
  "sourcePath": "C:\\Users\\USER\\Voteforchange\\contracts\\Election.sol",
  "compiler": {
    "name": "solc",
    "version": "0.5.16+commit.9c3226ce.Emscripten.clang"
  },
  "schemaVersion": "3.1.0",
  "updatedAt": "2020-05-26T07:28:45.258Z",
  "networkType": "ethereum",
  "devdoc": {
    "methods": {}
  },
  "userdoc": {
    "methods": {}
  }
}